{
  "contractName": "funders",
  "abi": [
    {
      "inputs": [
        {
          "internalType": "uint256",
          "name": "",
          "type": "uint256"
        }
      ],
      "name": "Votes",
      "outputs": [
        {
          "internalType": "uint256",
          "name": "",
          "type": "uint256"
        }
      ],
      "stateMutability": "view",
      "type": "function",
      "constant": true
    },
    {
      "inputs": [
        {
          "internalType": "uint256",
          "name": "",
          "type": "uint256"
        }
      ],
      "name": "participants",
      "outputs": [
        {
          "internalType": "address",
          "name": "",
          "type": "address"
        }
      ],
      "stateMutability": "view",
      "type": "function",
      "constant": true
    },
    {
      "inputs": [],
      "name": "giveVote0",
      "outputs": [],
      "stateMutability": "nonpayable",
      "type": "function"
    },
    {
      "inputs": [],
      "name": "giveVote1",
      "outputs": [],
      "stateMutability": "nonpayable",
      "type": "function"
    },
    {
      "inputs": [],
      "name": "giveVote2",
      "outputs": [],
      "stateMutability": "nonpayable",
      "type": "function"
    },
    {
      "inputs": [],
      "name": "giveVote3",
      "outputs": [],
      "stateMutability": "nonpayable",
      "type": "function"
    },
    {
      "inputs": [],
      "name": "totalVotes",
      "outputs": [
        {
          "internalType": "uint256",
          "name": "",
          "type": "uint256"
        }
      ],
      "stateMutability": "view",
      "type": "function",
      "constant": true
    },
    {
      "inputs": [],
      "name": "mostVoted",
      "outputs": [
        {
          "internalType": "uint256",
          "name": "",
          "type": "uint256"
        }
      ],
      "stateMutability": "view",
      "type": "function",
      "constant": true
    },
    {
      "inputs": [],
      "name": "alreadyVotedCheck",
      "outputs": [
        {
          "internalType": "bool",
          "name": "",
          "type": "bool"
        }
      ],
      "stateMutability": "view",
      "type": "function",
      "constant": true
    }
  ],
  "bytecode": "0x608060405234801561001057600080fd5b50610aa0806100206000396000f3fe608060405234801561001057600080fd5b50600436106100935760003560e01c806335c1d3491161006657806335c1d349146100d4578063571f8c1314610104578063781825d11461010e578063ac2987ff1461012c578063b9832e111461015c57610093565b80630aad4a05146100985780630d15fd77146100a25780631264ef45146100c05780631dd97b46146100ca575b600080fd5b6100a061017a565b005b6100aa6102ba565b6040516100b79190610862565b60405180910390f35b6100c861030b565b005b6100d261044a565b005b6100ee60048036038101906100e991906108ae565b61058a565b6040516100fb919061091c565b60405180910390f35b61010c6105c9565b005b610116610709565b6040516101239190610862565b60405180910390f35b610146600480360381019061014191906108ae565b61077e565b6040516101539190610862565b60405180910390f35b610164610799565b6040516101719190610952565b60405180910390f35b60003390506000805b60048054905081101561021a578273ffffffffffffffffffffffffffffffffffffffff16600482815481106101bb576101ba61096d565b5b9060005260206000200160009054906101000a900473ffffffffffffffffffffffffffffffffffffffff1673ffffffffffffffffffffffffffffffffffffffff16141561020757600191505b8080610212906109cb565b915050610183565b5060008114156102b6576004829080600181540180825580915050600190039060005260206000200160009091909190916101000a81548173ffffffffffffffffffffffffffffffffffffffff021916908373ffffffffffffffffffffffffffffffffffffffff1602179055506001600060016004811061029e5761029d61096d565b5b0160008282546102ae9190610a14565b925050819055505b5050565b6000806000905060005b600481101561030357600081600481106102e1576102e061096d565b5b0154826102ee9190610a14565b915080806102fb906109cb565b9150506102c4565b508091505090565b60003390506000805b6004805490508110156103ab578273ffffffffffffffffffffffffffffffffffffffff166004828154811061034c5761034b61096d565b5b9060005260206000200160009054906101000a900473ffffffffffffffffffffffffffffffffffffffff1673ffffffffffffffffffffffffffffffffffffffff16141561039857600191505b80806103a3906109cb565b915050610314565b506000811415610446576004829080600181540180825580915050600190039060005260206000200160009091909190916101000a81548173ffffffffffffffffffffffffffffffffffffffff021916908373ffffffffffffffffffffffffffffffffffffffff16021790555060016000806004811061042e5761042d61096d565b5b01600082825461043e9190610a14565b925050819055505b5050565b60003390506000805b6004805490508110156104ea578273ffffffffffffffffffffffffffffffffffffffff166004828154811061048b5761048a61096d565b5b9060005260206000200160009054906101000a900473ffffffffffffffffffffffffffffffffffffffff1673ffffffffffffffffffffffffffffffffffffffff1614156104d757600191505b80806104e2906109cb565b915050610453565b506000811415610586576004829080600181540180825580915050600190039060005260206000200160009091909190916101000a81548173ffffffffffffffffffffffffffffffffffffffff021916908373ffffffffffffffffffffffffffffffffffffffff1602179055506001600060036004811061056e5761056d61096d565b5b01600082825461057e9190610a14565b925050819055505b5050565b6004818154811061059a57600080fd5b906000526020600020016000915054906101000a900473ffffffffffffffffffffffffffffffffffffffff1681565b60003390506000805b600480549050811015610669578273ffffffffffffffffffffffffffffffffffffffff166004828154811061060a5761060961096d565b5b9060005260206000200160009054906101000a900473ffffffffffffffffffffffffffffffffffffffff1673ffffffffffffffffffffffffffffffffffffffff16141561065657600191505b8080610661906109cb565b9150506105d2565b506000811415610705576004829080600181540180825580915050600190039060005260206000200160009091909190916101000a81548173ffffffffffffffffffffffffffffffffffffffff021916908373ffffffffffffffffffffffffffffffffffffffff160217905550600160006002600481106106ed576106ec61096d565b5b0160008282546106fd9190610a14565b925050819055505b5050565b600080600090506000805b60048110156107695781600082600481106107325761073161096d565b5b0154111561075657809250600081600481106107515761075061096d565b5b015491505b8080610761906109cb565b915050610714565b506001826107779190610a14565b9250505090565b6000816004811061078e57600080fd5b016000915090505481565b60008033905060005b60048054905081101561083f57600481815481106107c3576107c261096d565b5b9060005260206000200160009054906101000a900473ffffffffffffffffffffffffffffffffffffffff1673ffffffffffffffffffffffffffffffffffffffff168273ffffffffffffffffffffffffffffffffffffffff16141561082c57600192505050610846565b8080610837906109cb565b9150506107a2565b5060009150505b90565b6000819050919050565b61085c81610849565b82525050565b60006020820190506108776000830184610853565b92915050565b600080fd5b61088b81610849565b811461089657600080fd5b50565b6000813590506108a881610882565b92915050565b6000602082840312156108c4576108c361087d565b5b60006108d284828501610899565b91505092915050565b600073ffffffffffffffffffffffffffffffffffffffff82169050919050565b6000610906826108db565b9050919050565b610916816108fb565b82525050565b6000602082019050610931600083018461090d565b92915050565b60008115159050919050565b61094c81610937565b82525050565b60006020820190506109676000830184610943565b92915050565b7f4e487b7100000000000000000000000000000000000000000000000000000000600052603260045260246000fd5b7f4e487b7100000000000000000000000000000000000000000000000000000000600052601160045260246000fd5b60006109d682610849565b91507fffffffffffffffffffffffffffffffffffffffffffffffffffffffffffffffff821415610a0957610a0861099c565b5b600182019050919050565b6000610a1f82610849565b9150610a2a83610849565b9250827fffffffffffffffffffffffffffffffffffffffffffffffffffffffffffffffff03821115610a5f57610a5e61099c565b5b82820190509291505056fea26469706673582212206e89fe3efc96446b5e28e075f0a350c730b9a08bc7e895b0b63ce2278c0d1ff364736f6c63430008090033",
  "immutableReferences": {},
  "source": "// SPDX-License-Identifier: GPL-3.0\npragma solidity >=0.8.2 <0.9.0;\n\ncontract funders{\n    //4 parties are competing and voter has to select from this 4 parties/\n\n    uint[4] public Votes;   //array where votes per party will be stored\n    address[] public participants; //storing address to make sure one person wont be able to vote twice\n\n    function  giveVote0() public{\n       // require(_partyNumber>=0 && _partyNumber<4);\n        address voter = msg.sender;\n        uint flag = 0;\n        for(uint i =0;i<participants.length;i++){\n            if(participants[i]==voter){\n                flag=1;\n            }\n        }\n        if(flag==0){\n            participants.push(voter);\n           \n          \n                    Votes[0]+=1;\n                \n      \n        \n    }  \n    }\n        function  giveVote1() public{\n       // require(_partyNumber>=0 && _partyNumber<4);\n        address voter = msg.sender;\n        uint flag = 0;\n        for(uint i =0;i<participants.length;i++){\n            if(participants[i]==voter){\n                flag=1;\n            }\n        }\n        if(flag==0){\n            participants.push(voter);\n           \n          \n                    Votes[1]+=1;\n                \n      \n        \n    }  \n    }\n        function  giveVote2() public{\n     //   require(_partyNumber>=0 && _partyNumber<4);\n        address voter = msg.sender;\n        uint flag = 0;\n        for(uint i =0;i<participants.length;i++){\n            if(participants[i]==voter){\n                flag=1;\n            }\n        }\n        if(flag==0){\n            participants.push(voter);\n           \n          \n                    Votes[2]+=1;\n                \n      \n        \n    }  \n    }\n        function  giveVote3() public{\n    //    require(_partyNumber>=0 && _partyNumber<4);\n        address voter = msg.sender;\n        uint flag = 0;\n        for(uint i =0;i<participants.length;i++){\n            if(participants[i]==voter){\n                flag=1;\n            }\n        }\n        if(flag==0){\n            participants.push(voter);\n           \n          \n                    Votes[3]+=1;\n                \n      \n        \n    }  \n    }\n  \n    function totalVotes() public view returns(uint){ \n        uint totalvote=0;\n        for(uint i=0;i<Votes.length;i++){\n            totalvote+=Votes[i];\n        }\n        return totalvote;\n    }\n    function mostVoted() public view returns(uint){\n        uint index =0;\n        uint maxValue = 0;\n        for(uint i=0;i<Votes.length;i++){\n            if(Votes[i]>maxValue){\n                index = i;\n                maxValue=Votes[i];\n            }\n        }\n        return index+1;\n    }\n  function alreadyVotedCheck() public view returns(bool){\n        address clicker = msg.sender;\n        for(uint i = 0; i<participants.length ; i++){\n            if(clicker==participants[i]){\n             return true;\n            }\n        }\n         return false;\n    }\n}",
  "sourcePath": "C:\\Users\\OS\\Desktop\\blockchain\\contracts\\funders.sol",
  "compiler": {
    "name": "solc",
    "version": "0.8.9+commit.e5eed63a.Emscripten.clang"
  },
  "schemaVersion": "3.4.14",
  "updatedAt": "2023-06-06T06:17:13.893Z",
  "networkType": "ethereum",
  "devdoc": {
    "kind": "dev",
    "methods": {},
    "version": 1
  },
  "userdoc": {
    "kind": "user",
    "methods": {},
    "version": 1
  }
}